:200000000C9459160C948A160C948A160C948A160C948A160C948A160C948A160C948A1611
:200020000C948A160C948A160C948A160C948A160C948A160C948A160C948A160C948A16C0
:200040000C948A160C94F1490C948A160C948A160C948A160C948A160C942EA00C94DFDBBE
:200060000C948A160C9449360C948A160C948A160C948A160C948A160C948A160C948A16A1
:200080000C948A160C948A160C948A160C948A160C948A160C948A160C948A160C948A1660
:2000A0000C948A160C948A160C948A160C948A160C948A160C948A160C948A160C948A1640
:2000C0000C948A160C948A160C948A160C948A160C948A160C948A160C948A160C948A1620
:2000E0000C948A168DD890D87FD883D889D8C7D894D898D89ED8A2D8A6D8ACD8B0D8B4D85F
:20010000C7D8BAD8BED8C2D8D6DADBDAE0DAEADAF4DA6DDBFEDA06DB0EDB18DB22DB2CDBEC
:200120003BDB45DB6DDB4FDB59DB63DB084AD73B3BCE016E84BCBFFDC12F3D6C74319ABD38
:2001400056833DDA3D00C77F11BED9E4BB4C3E916BAAAABE000000803F05A84CCDB2D44EF4
:20016000B93836A9020C50B9918688083CA6AAAA2ABE000000803F004E414E494E495459AA
:20018000494E46CDCCCC3D0AD7233C17B7D13877CC2B329595E6241FB14F0A00002041006B
:2001A00000C84200401C4620BCBE4CCA1B0E5AAEC59D74434F4D4D554E49434154494F4E06
:2001C0000044525952554E004552524F525300494E464F004543484F0047322F473320626F
:2001E000616420706172616D65746572730A005265706F736F2E2E2E00486F6D6520257399
:200200002573257320696E69632E0020696E69632E0A005A0059005800486F6D65200052BC
:200220006573756D69656E646F20696D7072652E004D61676E612049206C697374612E00D2
:200240004573706572616E646F206F7264656E65730053696E206D6F76696D69656E746F5C
:2002600000456E642066696C65206C6973740A00426567696E2066696C65206C6973740A36
:20028000002569730025696D20256973002569682025696D20256973002569642025696807
:2002A0002025696D202569730025697920256964202569682025696D20256973005072696C
:2002C0006E742074696D653A200050726F7465637465642050696E0A00452569202573008D
:2002E0004D61676E612049206C697374612E00D401CF01C801C101B3016F6666004445425C
:2003000055473A0050617261646120646520656D657267656E636961004D31313320530050
:200320006F6B00506C617461666F726D612043616C69656E74650020573A0043616C656E03
:2003400074616E646F20506C61742E2E2E004D61676E612049204170616761722E00454DD3
:20036000455247454E43595F50415253455200434153455F4C494748545F42524947485432
:200380004E45535300544F47474C455F4C494748545300534F4654574152455F504F574533
:2003A00052004255494C445F50455243454E54004C4556454C494E475F44415441005A5F83
:2003C00050524F4245004155544F4C4556454C005052494E545F4A4F420050524F4752455E
:2003E0005353004155544F5245504F52545F54454D5000564F4C554D455452494300454519
:2004000050524F4D0053455249414C5F584F4E5F584F4646004649524D574152455F4E41AD
:200420004D453A4D61726C696E20312E382E302E3220284769746875622920534F55524398
:20044000455F434F44455F55524C3A68747470733A2F2F6769746875622E636F6D2F4D61B9
:20046000726C696E4669726D776172652F4D61726C696E2050524F544F434F4C5F5645521A
:2004800053494F4E3A312E30204D414348494E455F545950453A4D61676E61204920455860
:2004A0005452554445525F434F554E543A3120555549443A63656465326132662D343161D3
:2004C000322D343734382D396231322D6335356336326633363766660A002F2F20004D311E
:2004E000343520533C696E6465783E206F7574206F662072616E67652028302D31290A00EB
:2005000053657474696E672054726176656C20416363656C65726174696F6E3A2000536573
:200520007474696E67205265747261637420416363656C65726174696F6E3A200053657430
:2005400074696E67205072696E7420416363656C65726174696F6E3A200053657474696E01
:2005600067205072696E7420616E642054726176656C20416363656C65726174696F6E3AE2
:200580002000205A00205900580020204D61783A2000205A00205900580020204D696E3A47
:2005A0002000456E63656E6465720041706167617200536F667420656E6473746F70733A45
:2005C0002000000125272318FF1F211D1CFF19171B1EFFFF0C0409FFFFFF2E2C0CFFFF0417
:2005E000400AFF41FFFFFFFFFFFF20643A0020693A0020703A0020643A0020693A0020701B
:200600003A0043290A0061626C656420286D696E2074656D702000436F6C6420657874724B
:200620007564657320617265200043617365206C696768743A2000290A0046697865642040
:20064000706172616D657465722062797465733B206372632000466978656420706172612B
:200660006D6574657220280048565F7365745F6F6B0A004163746976652045787472756491
:2006800065723A2000556E6B6E6F776E20636F6D6D616E643A2022005061726164612064F1
:2006A0006520656D657267656E63696100446574656E696461005072696E7465722073749C
:2006C0006F707065642064756520746F206572726F72732E204669782074686520657272A5
:2006E0006F7220616E6420757365204D39393920746F20726573746172742E202854656D7D
:2007000070657261747572652069732072657365742E205365742069742061667465722069
:2007200072657374617274696E67290A004E6F20436865636B73756D2077697468206C6962
:200740006E65206E756D6265722C204C617374204C696E653A2000636865636B73756D20C8
:200760006D69736D617463682C204C617374204C696E653A20004C696E65204E756D6265A2
:2007800072206973206E6F74204C617374204C696E65204E756D6265722B312C204C6173CD
:2007A00074204C696E653A20004D313130004D33310047323820585900534420726561645E
:2007C000206572726F720A00446F6E65207072696E74696E672066696C650A0020496E769D
:2007E000616C6964206578747275646572200046696C652064656C657465643A0044656CE6
:200800006574696F6E206661696C65642C2046696C653A20006F70656E206661696C6564D7
:200820002C2046696C653A2000200D466978656420706172616D65746572206E6279746552
:20084000733B20637263206572726F722000200D0A466978656420706172616D6574657220
:200860002062797465733B20637263206572726F722000290A002062797465733B2063728A
:20088000632000466978656420706172616D657465722028002068617264776172652076B8
:2008A000657273696F6E3A002D2D2D2D2D2D2D007C48454C4C424F547C002D2D2D2D2D2D23
:2008C0002D00687474703A2F2F68656C6C626F742E78797A00687474703A2F2F68656C6C13
:2008E000626F742E78797A0020312E382E302E32002020506C616E6E65724275666665723B
:2009000042797465733A20002046726565204D656D6F72793A2000436F6D70696C65643A7A
:20092000204D617220323620323032300A00207C20417574686F723A2028466163756E64FF
:200940006F204F6C6D65646F2C2064656661756C7420636F6E666967290A00323031372DB7
:2009600031322D32352031323A303000204C61737420557064617465643A2000312E382EA9
:20098000302E320A004D61726C696E0020536F6674776172652052657365740A00205761EA
:2009A000746368646F672052657365740A002042726F776E206F75742052657365740A00C4
:2009C0002045787465726E616C2052657365740A00506F77657255700A0073746172740A73
:2009E000006572726F722077726974696E6720746F2066696C650A00456E6473746F70738C
:200A000020256320256320256320256300205A3A0020593A0020583A00656E6473746F7020
:200A200073206869743A200047323820580066696C616D656E74206F75740A004D333220B7
:200A400053256C7520212573004D33322053256C7520212F25732F2573004730204631302C
:200A60003030205A25752E2575004732382059004732382058004D313036202053323535D4
:200A8000004D31303920543020532575004D3139302053257500446F6E6520736176696E03
:200AA000672066696C652E0A004D32390057726974696E6720746F2066696C653A20006FAF
:200AC00070656E206661696C65642C2046696C653A20006F70656E206661696C65642C20A5
:200AE00046696C653A200046696C652073656C65637465640A002053697A653A2000466965
:200B00006C65206F70656E65643A20006F70656E206661696C65642C2046696C653A2000B2
:200B20002066696C653A2000646F696E67006672657368004E6F772000454E44205355423D
:200B4000524F5554494E450A002220706F73002220706172656E743A2200535542524F55C9
:200B600054494E452043414C4C207461726765743A220050617261646120646520656D657D
:200B80007267656E63696100747279696E6720746F2063616C6C207375622D67636F646587
:200BA0002066696C6573207769746820746F6F206D616E79206C6576656C732E204D415800
:200BC000206C6576656C2069733A0053442063617264206F6B0A006F70656E526F6F7420DC
:200BE0006661696C65640A00766F6C756D652E696E6974206661696C65640A004572726FE5
:200C0000723A00534420696E6974206661696C0A00526573746175726172206D656D6F72FE
:200C2000696100436172676172206D656D6F72696100496E697469616C697A652045455084
:200C4000524F4D0047756172646172206D656D6F7269610046696C616D656E746F004D6F7B
:200C600076696D69656E746F0054656D7065726174757261004D656E75207072696E636945
:200C800070616C004D33303320553120452569205325690050726563616C656E7461722009
:200CA000414253436F6E6669670050726563616C656E74617220504C41436F6E6669670044
:200CC000504944204175746F74756E6500504944204175746F74756E6500504944204175BD
:200CE000746F74756E65005049442D44005049442D44005049442D49005049442D490050C3
:200D000049442D50005049442D5000200220466163740020022046616374002002204D61FF
:200D200078002002204D6178002002204D6178002002204D696E002002204D696E0020027D
:200D4000204D696E0041706167617200456E63656E6465720054656D706572617475726155
:200D6000204175746F2E0056656E74696C61646F720056656E74696C61646F720056656E33
:200D800074696C61646F7200506C617461666F726D6100506C617461666F726D6100506C9A
:200DA000617461666F726D6100426F7175696C6C6100426F7175696C6C6100426F71756976
:200DC0006C6C6100436F6E74726F6C0047756172646172206D656D6F72696100506C617498
:200DE00061666F726D6100506C617461666F726D6100506C617461666F726D6100426F714D
:200E000075696C6C6100426F7175696C6C6100426F7175696C6C610056656E74696C616412
:200E20006F720056656E74696C61646F720056656E74696C61646F720054656D70657261D3
:200E4000747572610056656C2E207669616A65206D696E0056656C2E207669616A65206DDD
:200E6000696E0056656C2E207669616A65206D696E00566D696E00566D696E00566D696EE5
:200E800000566D61784500566D61784500566D61784500566D61785A00566D61785A00566D
:200EA0006D61785A00566D61785900566D61785900566D61785900566D61785800566D619B
:200EC000785800566D617858004D6F76696D69656E746F0024F4D43050C38E20C2A240178F
:200EE000828B7011127A910D816CD90AA861E108C7586607615143061E4B5D05C145A70475
:200F00001A411104093D9803713931034036DB0265339102D4305402802E1D02632CEE017F
:200F2000752AC501B028A001102781018F2564012B244B01E0223401AC211F018D200D0187
:200F4000801FFC00841EED00971DDF00B81CD200E61BC600201BBC00641AB200B219A800CD
:200F60000A19A0006A189900D117910040178B00B516840031167E00B31579003A15730021
:200F8000C7146F0058146A00EE1366008813630025135E00C7125B006C12570015125400B2
:200FA000C111510070114F0021114B00D61049008D1047004610440002104200C00F4000B1
:200FC000800F3E00420F3C00060F3B00CB0E3800930E37005C0E3500270E3400F30D320044
:200FE000C10D3100900D3000600D2E00320D2D00050D2C00D90C2B00AE0C2900850C290033
:201000005C0C2700350C27000E0C2600E80B2400C40B2400A00B23007D0B23005A0B210090
:20102000390B2100180B2000F80A1F00D90A1E00BB0A1E009D0A1D00800A1D00630A1C000F
:20104000470A1B002C0A1B00110A1A00F7091A00DD091900C4091900AB0919009209170020
:201060007B091800630917004C09160036091600200916000A091500F5081500E00814001C
:20108000CC081400B8081400A4081400900813007D0812006B08130058081200460812003A
:2010A00034081100230811001208110001081100F0071000E0071000D0071000C0071000A6
:2010C000B0070F00A107100091070E0083070F0074070F0065070E0057070E0049070E0085
:2010E0003B070D002E070E0020070D0013070D0006070D00F9060C00ED060D00E0060C00EC
:20110000D4060C00C8060C00BC060C00B0060C00A4060B0099060C008D060B0082060B00EE
:2011200077060B006C060B0061060A0057060B004C060A0042060A0038060A002E060A009D
:2011400024060A001A060A001006090007060A00FD050900F4050900EB050900E205090005
:20116000D9050900D0050900C7050900BE050900B5050800AD050800A50509009C05080031
:20118000940508008C050800840508007C050800740508006C050700650508005D05070027
:2011A000560508004E050700470507004005080038050700310507002A05070023050700EC
:2011C0001C050600160507000F0507000805060002050700FB040600F5040700EE0406008D
:2011E000E8040600E2040700DB040600D5040600CF040600C9040600C3040600BD0406000C
:20120000B7040600B1040500AC040600A6040600A00405009B040600950405009004060067
:201220008A04050085040500800406007A04050075040500700405006B04050066040500A6
:20124000610405005C04050057040500520405004D04050048040500430405003E040400CB
:201260003A04050035040500300404002C04050027040400230405001E0404001A040400DD
:2012800016040500110404000D040400090405000404040000040400FC030400F8030400D9
:2012A000F4030400F0030400EC030400E8030400E4030400E0030400DC030400D8030400C6
:2012C000D4030400D0030400CC030400C8030300C503030024F404D9201BC40C5C0E9804EA
:2012E000C4095F0265077101F405F900FB04B30048048700C1036900580355000303450043
:20130000BE023A008402310053022A002902250004022000E4011C00C8011900AF0117007D
:201320009801140084011300710110006101100051010E0043010D0036010B002B010B004A
:2013400020010B00150109000C01090003010800FB000800F3000800EB000700E400060046
:20136000DE000600D8000600D2000600CC000500C7000500C2000500BD000400B9000400F1
:20138000B5000400B1000400AD000400A9000400A5000300A20003009F0004009B000300F3
:2013A000980003009500020093000300900003008D0002008B0003008800020086000200A3
:2013C00084000300810002007F0002007D0002007B0002007900020077000100760002001B
:2013E0007400020072000100710002006F0002006D0001006C0002006A000100690002006E
:20140000670001006600010065000100640002006200010061000100600001005F000200AA
:201420005D0001005C0001005B0001005A00010059000100580001005700010056000100D8
:20144000550001005400010053000000530001005200010051000100500001004F000100F4
:201460004E0000004E0001004D0001004C0001004B0000004B0001004A0001004900010008
:20148000480000004800010047000100460000004600010045000000450001004400010016
:2014A000430000004300010042000000420001004100000041000100400001003F0000001D
:2014C0003F0001003E0000003E0001003D0000003D0001003C0000003C0000003C0001001F
:2014E0003B0000003B0001003A0000003A000100390000003900010038000000380000001D
:20150000380001003700000037000100360000003600000036000100350000003500000016
:2015200035000100340000003400000034000100330000003300000033000100320000000C
:20154000320000003200010031000000310000003100010030000000300000003000010001
:201560002F0000002F0000002F0000002F0001002E0000002E0000002E0001002D000000F6
:201580002D0000002D0000002D0001002C0000002C0000002C0000002C0001002B000000E7
:2015A0002B0000002B0000002B0001002A0000002A0000002A0000002A00010029000000D7
:2015C0002900000029000000290000002900010028000000280000002800000028000000C6
:2015E0002800010027000000270000002700000027000000270001002600000026000000B2
:2016000026000000260000002600010025000000250000002500000025000000250000009E
:20162000250001002400000024000000240000002400000024000100230000002300000089
:20164000230000002300000023000000230000002300010022000000220000002200000074
:2016600022000000220000002200010021000000210000002100000021000000210000005E
:20168000210000002100010020000000200000002000000020000000200000002000000047
:2016A00020000000200001001F0000001F0000001F0000001F0000001F0000001F0000002F
:2016C0001F0001001E0000001E0000001E0000001E0000004D383420582059205A204500E9
:2016E0005A25752C45256C752C50256C752C5425752C4225752C004D61676E612049206CD6
:20170000697374612E004572723A4E6F2046696C616D656E74004D36303020486F74656E79
:201720006420746F6F20636F6C6420746F206368616E67652066696C616D656E740A0050BE
:2017400072696E74207061757365640000257300496D70726573696F6E2063616E63656C56
:20176000616461004E6F20686179207461726A657461205344004D656E752064652053442D
:2017800000446574656E657220696D70726573696F6E005265616E7564617220696D707282
:2017A0006573696F6E00496E662E20496D707265736F72610050617573617220696D7072AA
:2017C0006573696F6E00436F6E74726F6C00507265706172617200416A75737461720049AA
:2017E0006E666F726D6163696F6E004D6963726F7061736F205A004D3630302042300043DE
:20180000616D626961722066696C616D656E746F004D6963726F7061736F205A00466C752F
:201820006A6F00466C756A6F00466C756A6F0056656E74696C61646F720056656E74696C45
:2018400061646F720056656E74696C61646F7200506C617461666F726D6100506C617461D1
:20186000666F726D6100506C617461666F726D6100426F7175696C6C6100426F7175696CA7
:201880006C6100426F7175696C6C610056656C6F63696461640056656C6F6369646164002C
:2018A00056656C6F6369646164004D656E75207072696E636970616C0050726563616C656A
:2018C0006E74617220504C4120456E640050726563616C656E74617220504C41506C617420
:2018E00061666F726D610050726563616C656E74617220504C4100507265706172617200C7
:2019000050726563616C656E7461722041425320456E640050726563616C656E7461722098
:20192000414253506C617461666F726D610050726563616C656E74617220414253005072A1
:20194000657061726172004174726173004E65787420636F726E65720050726563616C650D
:201960006E74617220504C4100456E66726961720043616D626961722066696C616D656E43
:20198000746F0050726563616C656E7461722041425300417061676172206D6F746F7265FB
:2019A00073004D3834004C6576656C20636F726E657273004C6C6576617220616C206F7293
:2019C0006967656E00473238004D6F76657220656A6573004D656E75207072696E63697039
:2019E000616C004D6F7665722058004D6F7665722059004D6F766572205A0045787472757C
:201A0000736F72004D6F76657220302E316D6D004D6F76657220316D6D004D6F7665722083
:201A200031306D6D004D6F76657220656A657300486F74656E6420746F6F20636F6C640005
:201A40004578747275736F72004D6F766572205A004D6F7665722059004D6F766572205894
:201A6000004578747275736F72004D6F766572205A004D6F7665722059004D6F76657220CC
:201A80005800507265706172617200496E697469616C697A6520454550524F4D00436F6E97
:201AA00074726F6C004572726F722077726974696E6720746F20454550524F4D210A0029F8
:201AC0000A002062797465733B20637263200053657474696E67732053746F7265642028D8
:201AE0000020746F6F206C6F6E6720657874727573696F6E2070726576656E7465640A009C
:201B000020636F6C6420657874727573696F6E2070726576656E7465640A002020426F7199
:201B200075696C6C613A200063616D626961720064656C2066696C616D656E746F00457399
:201B4000706572616E646F20696E696369617200494D50522E2050415553414441002020D8
:201B6000426F7175696C6C613A200066696C616D656E746F20657870756C7361646F0045D9
:201B80007370657261646F20706F7200494D50522E2050415553414441002020426F71758A
:201BA000696C6C613A200045737065726520706F72206661766F720043616C656E74616EF0
:201BC000646F20626F7175696C6C6100494D50522E2050415553414441002020426F71755D
:201BE000696C6C613A200043616C656E746172206C6120626F7175696C6C61004F707269BF
:201C00006D6120626F746F6E207061726100494D50522E2050415553414441002020426F7A
:201C20007175696C6C613A20007061726120636F6E74696E7561722E2E2E007920707265C1
:201C400073696F6E6520656C20626F746F6E00496E73657274652066696C616D656E746F7A
:201C600000494D50522E2050415553414441002020426F7175696C6C613A2000436172678F
:201C800061722066696C616D656E746F00457370657261646F20706F7200494D50522E2068
:201CA00050415553414441002020426F7175696C6C613A2000457874727569722066696C04
:201CC000616D656E746F00457370657261646F20706F7200494D50522E2050415553414498
:201CE00041007061726120726573756D6972004573706572616E646F20696D702E00494D0D
:201D000050522E20504155534144410070012C0190012701B0012201C0011D01F0011801C0
:201D20001002130130020E016002090190020401C002FF000003FA004003F5008003F000D0
:201D4000D003EB002004E6007004E100E004DC004005D700C005D2004006CD00D006C80042
:201D60008007C3003008BE00F008B900C009B400B00AAF00B00BAA00D00CA500000EA000F8
:201D8000500F9B00C01096005012910000148C00C0158700B0178200B0197D00D01B780002
:201DA000001E730040206E0090226900F024640040275F0090295A00E02B5500102E50006A
:201DC00020304B0010324600E033410090353C001037370070383200A0392D00B03A28001B
:201DE000A03B2300603C1E00103D1900903D1400103E0F00703E0A00C03E0500003F00008D
:201E0000403FFBFF803FF6FFC03FF1FF001C1F11111F00000006191803130C00040E1F049C
:201E20001C000000001010101010100000141414141414000015151515151500000E1315FA
:201E4000110E00001C10181705060500040A0A0A0A11110E0C12120C00000000001F15111B
:201E6000151F000000000000010204040000001C1C0C0404040201000000000004081000B4
:201E8000000000004D31303420532575004739322045257500473932205A25752E25750014
:201EA0004D3530300043616E63656C207072696E74005265616E7564617220696D7072653E
:201EC00073696F6E00506F776572206F75746167650025753A2530327500253032753A256C
:201EE000303275002D2D2D005344005A005900580020440020490020204D33303420500081
:201F000020440020490020204D3330312050005049442073657474696E67733A0A0020464B
:201F20000020420020480020204D3134352053004D6174657269616C206865617475702047
:201F4000706172616D65746572733A0A00204500205A002059002058002042002054002043
:201F6000204D323035205300416476616E6365643A20533C6D696E5F666565647261746508
:201F80003E20543C6D696E5F74726176656C5F66656564726174653E20423C6D696E5F7391
:201FA00065676D656E745F74696D655F75733E20583C6D61785F78795F6A65726B3E205A01
:201FC0003C6D61785F7A5F6A65726B3E20453C6D61785F655F6A65726B3E0A0020540020CB
:201FE000520020204D323034205000416363656C65726174696F6E2028756E6974732F7315
:2020000032293A20503C7072696E745F616363656C3E20523C726574726163745F61636394
:20202000656C3E20543C74726176656C5F616363656C3E0A00204500205A0020590020201C
:202040004D3230312058004D6178696D756D20416363656C65726174696F6E2028756E69CC
:2020600074732F7332293A0A00204500205A0020590020204D3230332058004D6178696D4A
:20208000756D206665656472617465732028756E6974732F73293A0A00204500205A002002
:2020A000590020204D393220580053746570732070657220756E69743A0A0020204D3230CE
:2020C000302044300A0020204D3230302044002044697361626C65640A0046696C616D651F
:2020E0006E742073657474696E67733A0020204D3134392043203B20556E69747320696E20
:202100002043656C736975730A002020473231202020203B20556E69747320696E206D6DF4
:202120000A007A5F6D696E3A2000795F6D696E3A2000785F6D696E3A20005265706F7274B7
:20214000696E6720656E6473746F70207374617475730A004163656C2E206D6178450041C7
:2021600063656C2E206D617845004163656C2E206D61785A004163656C2E206D61785A008C
:202180004163656C2E206D617859004163656C2E206D617859004163656C2E206D6178581A
:2021A000004163656C2E206D617858004163656C2E205669616A65004163656C2E2056698A
:2021C000616A65004163656C2E207265747261632E004163656C2E207265747261632E00EB
:2021E0004163656C65726163696F6E004163656C65726163696F6E004D6F76696D69656EEF
:20220000746F0056652D6A65726B0056652D6A65726B0056652D6A65726B00567A2D6A6553
:20222000726B00567A2D6A65726B0056792D6A65726B0056792D6A65726B0056792D6A65FD
:20224000726B0056782D6A65726B0056782D6A65726B0056782D6A65726B004D6F76696DA4
:2022600069656E746F0045207061736F732F6D6D0045207061736F732F6D6D005A207061CC
:20228000736F732F6D6D005A207061736F732F6D6D0059207061736F732F6D6D00592070A6
:2022A00061736F732F6D6D0058207061736F732F6D6D0058207061736F732F6D6D004D6F55
:2022C00076696D69656E746F005061736F732F6D6D004A65726B004163656C65726163697F
:2022E0006F6E0056656C6F6369747900436F6E74726F6C0041706167617200456E63656E9C
:202300006465720052756E6F75742073656E736F72730046696C2E204469612E0046696C08
:202320002E204469612E0041706167617200456E63656E646572004520696E206D6D33003A
:20234000436F6E74726F6C006265640A002C2073797374656D2073746F70706564212048CE
:2023600065617465725F49443A20004572726F723A20616C2063616C656E746172004865BE
:202380006174696E67206661696C6564004572726F723A20616C2063616C656E746172000A
:2023A00048656174696E67206661696C6564004572726F723A2074656D706572617475722B
:2023C0006100546865726D616C2052756E61776179004572726F723A2054656D70204D69F8
:2023E0006E20506C6174004572726F723A2054656D70204D696E696D61004D494E54454D7F
:202400005020747269676765726564004572726F723A2054656D70204D617820506C61749E
:20242000004572726F723A2054656D70204D6178696D61004D415854454D50207472696733
:20244000676572656400202F002042403A0020403A0043616E6E6F74206F70656E20737573
:202460006264697220006175746F25692E67004D3234004D323320257300656E717565750F
:2024800065696E672022006563686F3A005461726A65746120726574697261646100546192
:2024A000726A65746120636F6C6F6361646100526573656E643A20006F6B0020746F6F2089
:2024C0006C6F6E6720657874727573696F6E2070726576656E7465640A0020636F6C642062
:2024E000657874727573696F6E2070726576656E7465640A00627573793A207061757365B9
:202500006420666F7220696E7075740A00627573793A2070617573656420666F7220757388
:2025200065720A00627573793A2070726F63657373696E670A005061726164612064652004
:20254000656D657267656E636961004B494C4C2063617573656420627920746F6F206D753B
:20256000636820696E6163746976652074696D65202D2063757272656E7420636F6D6D61B1
:202580006E643A2000506F72206661766F722C207265696E6963696500494D505245534FED
:2025A000524120504152414441005072696E7465722068616C7465642E206B696C6C2829FE
:2025C0002063616C6C6564210A00000070C1000070C1000000000000C8420000C8420000D5
:2025E000A041000000005761726E696E673A20486F6D696E672042756D7020446976697395
:202600006F72203C20310A000202040000A0400000A040000000400000754300006B4300B4
:20262000008243FFFFFF7C3C3E5E2B3D3F2F5B5D3B2C2A225C0043616E6E6F7420656E741D
:202640006572207375626469723A2000052E2E004D656E75207072696E636970616C005474
:20266000656D7065726174757261206D6178696D613A203135300054656D706572617475E0
:202680007261206D696E696D613A203500544265643A4550434F53203130304B0054656D08
:2026A0007065726174757261206D6178696D613A203237350054656D706572617475726197
:2026C000206D696E696D613A20350054303A204550434F53203130304B004675656E746515
:2026E00020646520706F6465723A2047656E657269630050726F746F636F6C6F3A20312E26
:202700003000202020204857205665723A2056004657205665723A2056312E31004261752B
:2027200064696F733A20323530303030004754323536302056332E30004578747275736F00
:202740007265733A203100687474703A2F2F68656C6C626F742E78797A004D61676E6120C5
:202760004900323031372D31322D32352031323A303000312E382E302E32004D61726C69BB
:202780006E005465726D6973746F72657300496E662E20436F6E74726F6C61646F720049EF
:2027A0006E662E20496D707265736F7261004D656E75207072696E636970616C002020424C
:2027C0006F7175696C6C613A200041747261730054656D70204D696E696D61206573203153
:2027E00037302E004572726F723A20616C2063616C656E7461720045787472756972206D29
:20280000617300526573756D697220696D702E004F50432E205245494E4943494F3A00436A
:20282000616C656E74616D69656E746F206C6973746F0020573A00452569202573004D6162
:20284000676E612049206C697374612E00205A3A0020593A0020436F756E7420583A00200C
:20286000453A00205A3A0020593A00583A003A004361703A004B64200023646566696E65FB
:20288000202044454641554C545F004B69200023646566696E65202044454641554C545F8E
:2028A000004B70200023646566696E65202044454641554C545F00504944204175746F7401
:2028C000756E652066696E6973686564212050757420746865206C617374204B702C204B25
:2028E0006920616E64204B6420636F6E7374616E74732066726F6D2062656C6F7720696E4C
:20290000746F20436F6E66696775726174696F6E2E680A00504944204175746F74756E656A
:20292000206661696C6564212074696D656F75740A004572726F723A2074656D706572616E
:202940007475726100546865726D616C2052756E61776179004572726F723A20616C206333
:20296000616C656E7461720048656174696E67206661696C656400504944204175746F7421
:20298000756E65206661696C6564212054656D706572617475726520746F6F206869676869
:2029A0000A00204B643A2000204B693A2000204B703A20000A20436C6173736963205049DC
:2029C00044200A002054753A2000204B753A2000206D61783A2000206D696E3A200020640A
:2029E0003A200020626961733A2000290A57726974652066696C65206E616D653A2000202B
:202A000062797465733B206372632000506F7765726F66662053746F72656420280020217A
:202A20003D2000637263206572726F723A20000A726561642066696C65206E616D653A20DC
:202A400000290A726561642066696C65206469723A20002062797465733B20637263200034
:202A6000706F7765726F66662073746F7265642073657474696E677320726574726965768B
:202A80006564202800202863616C63756C6174656429210A0020213D2000454550524F4D11
:202AA00020435243206D69736D61746368202D202873746F726564292000290A002062790B
:202AC0007465733B2063726320002073746F7265642073657474696E67732072657472696F
:202AE00065766564202800204D61726C696E3D563131290A0028454550524F4D3D00454588
:202B000050524F4D2076657273696F6E206D69736D61746368200048617264636F6465643D
:202B20002044656661756C742053657474696E6773204C6F616465640A00E8030000E803F6
:202B4000000032000000E80300000000C8430000C8430000C843000034429A99A0429A9979
:202B6000A1420000C8430000BA4200002100240027002A002D00300033000101000004013E
:202B800007010A0100002200250028002B002E003100340002010000050108010B010000D7
:202BA00020002300260029002C002F003200000100000301060109010505050507050808B0
:202BC0000808020202020A0A0808040404040101010101010101030303030303030304077E
:202BE00007070C0C0C0C0C0C0C0C0202020206060606060606060B0B0B0B0B0B0B0B0102D4
:202C00001020200808102040102040800201020108040201010204081020408080402010F0
:202C20000804020180040201804020100804020108040201010204081020408001020408E2
:202C40001020408000000A0B02090C0D0E0807030401000000000000000000000000000026
:202C6000000000000000000000000000000000001211100000000000000000000000000021
:202C8000000000000000000000005344207072696E74696E67206279746520004E6F7420CD
:202CA0005344207072696E74696E670A0000EDE4ECE611241FBECFEFD1E2DEBFCDBF00E0B9
:202CC0000CBF13E0A0E0B2E0EAE8F9EE01E00BBF02C007900D92A03AB107D9F725E1A0EAD6
:202CE000B3E001C01D92AD37B207E1F716E1C8E5D6E100E006C021970109802FFE010E9449
:202D000023F4C735D10780E00807A9F70E9438DC0C94B4F40C9400002F923F924F925F92B7
:202D20006F927F928F929F92AF92BF92CF92DF92EF92FF920F931F93CF93DF93CDB7DEB778
:202D4000CB55D1090FB6F894DEBF0FBECDBF81E090E090930D1580930C15809189148D3479
:202D600009F4BFC7843511F40C94012B873421F0E7E8F4E20C943C2B209087143090881427
:202D800024E02216310409F407C55CF437FE02C00C94512B8091270242E0241631048CF54A
:202DA0002BC05AE52516310409F44DC764F49BE12916310409F437C5ACE12A16310409F428
:202DC000C3C50C94512BBBE52B16310409F43FC7ECE52E16310411F00C94512B0E9483A604
:202DE00029E7222E22E0322E32E5E32E38E0F32E00E0D12C10E055C781110C94582B0C9472
:202E0000512B882311F40C94512B0E94823182E50E947631882309F430C10E9414314B0199
:202E20005C0120E030E0A9010E94F2EC882309F450C120915208309153084091540850910D
:202E4000550828A739A74AA75BA78091560890915708A0915808B09159088CA79DA7AEA785
:202E6000BFA720911E1530911F15409120155091211528AF39AF4AAF5BAF809122159091CB
:202E80002315A0912415B091251588AB99ABAAABBBAB68A579A58AA59BA50E94F2EC811137
:202EA0000DC028A939A94AA95BA96CA57DA58EA59FA50E94F2EC882309F40BC111E092E09A
:202EC0002916310409F010E020E030E0A901C501B4010E94F2EC881F8827881F181759F06B
:202EE00020E030E040E85FEB24962CAF3DAF4EAF5FAF24970AC080E090E0A0E8BFE324968B
:202F00008CAF9DAFAEAFBFAF249728A539A54AA55BA568AD79AD8AAD9BAD0E941BF16CAB8B
:202F20007DAB8EAB9FAB2CA53DA54EA55FA568A979A98AA99BA90E941BF16B017C012CA926
:202F40003DA94EA95FA9CA01B9010E9457ED2B013C01A7019601C701B6010E9457ED9B0178
:202F6000AC01C301B2010E941CF10E9487F36CAF7DAF8EAF9FAF20E030E040E05FE30E947C
:202F800057ED2B013C01A5019401C501B4010E9457ED4B015C01A3019201C301B2010E94EF
:202FA00057ED9B01AC01C501B4010E941BF10E9487F324962CAD3DAD4EAD5FAD24970E945E
:202FC00057ED4B015C01C701B60190582CAD3DAD4EAD5FAD0E94F8F1A50194010E9457ED27
:202FE0006B017C0128AD39AD4AAD5BAD68A579A58AA59BA50E941CF120E030E040E05FE373
:203000000E9457ED9B01AC01C701B6010E941CF128A539A54AA55BA50E941BF16B017C0122
:2030200028A939A94AA95BA96CA57DA58EA59FA50E941CF120E030E040E05FE30E9457ED35
:203040002B013C012CAD3DAD4EAD5FAD6CA97DA98EA99FA90E94F8F1A50194010E9457EDD7
:203060009B01AC01C301B2010E941CF12CA53DA54EA55FA50E941BF114C089E40E947631FF
:20308000882329F00E9414316B017C0103C0C12CD12C76018AE40E9476318823E9F00E949B
:2030A000143168AF79AF8AAF9BAF20E030E0A901C701B6010E94F2EC81111BC020E030E0D3
:2030C000A90168AD79AD8AAD9BAD0E94F2EC811110C0ECEFFBE04CC320E030E0A901C70163
:2030E000B6010E94F2EC8823A1F318AE19AE1AAE1BAEA7019601505828A739A74AA75BA7B3
:2031000088AD99ADAAADBBADB0588CA79DA7AEA7BFA7CA01B9010E9457ED4B015C012CA556
:203120003DA54EA55FA5CA01B9010E9457ED9B01AC01C501B4010E941CF10E9487F36496C2
:203140006CAF7DAF8EAF9FAF64972091520830915308409154085091550828AB39AB4AAB64
:203160005BABA701960168A979A98AA99BA90E941CF124966CAF7DAF8EAF9FAF2497809159
:20318000560890915708A0915808B09159088CAF9DAFAEAFBFAF28AD39AD4AAD5BADBC0155
:2031A000CD010E941CF128966CAF7DAF8EAF9FAF289720911E1530911F1540912015509183
:2031C00021152C962CAF3DAF4EAF5FAF2C9724962CAD3DAD4EAD5FAD24972C966CAD7DAD1E
:2031E0008EAD9FAD2C970E941BF16B017C018091221590912315A0912415B0912515609672
:203200008CAF9DAFAEAFBFAF609728962CAD3DAD4EAD5FAD2897BC01CD010E941BF14B0199
:203220005C0120915A0830915B0840915C0850915D0868962CAF3DAF4EAF5FAF68976091BF
:2032400026157091271580912815909129150E941BF16CAB7DAB8EAB9FABA701960168A58D
:2032600079A58AA59BA50E9457ED2B013C01A50194016CA57DA58EA59FA50E9457ED9B010B
:20328000AC01C301B2010E941CF12B013C01A501940168A579A58AA59BA50E9457ED4B01EB
:2032A0005C01A70196016CA57DA58EA59FA50E9457ED9B01AC01C501B4010E941BF1A301CC
:2032C00092010E948FF16B017C0120E030E0A9010E94F2EC87FF0AC02BED3FE049EC50E426
:2032E000C701B6010E941CF16B017C0132E02316310451F42BED3FE049EC50E4C701B601D3
:203300000E941BF16B017C0120E030E0A901C701B6010E94F2EC811124C02C962CAD3DAD62
:203320004EAD5FAD2C9768A979A98AA99BA90E94F2EC811116C060962CAD3DAD4EAD5FAD71
:2033400060976CAD7DAD8EAD9FAD0E94F2EC811108C07BEDC72E7FE0D72E79ECE72E70E443
:20336000F72EA701960164966CAD7DAD8EAD9FAD64970E9457ED9B01AC010E9457ED4B01C9
:203380005C012CA93DA94EA95FA9CA01B9010E9457ED9B01AC01C501B4010E941CF10E9496
:2033A00087F34B015C012FE632E143E85AE30E94F2EC87FDD6C1C501B4010E9491F20E947D
:2033C00065F27DAF6CAF672B21F481E090E09DAF8CAF40905E0850905F086090600870907B
:2033E0006108ACADBDADBD0180E090E00E94F6EC4B015C019B01AC01C701B6010E94F8F193
:2034000068AB79AB8AAB9BABA50194016CA97DA98EA99FA90E94F8F164966CAF7DAF8EAFFC
:203420009FAF6497A301920160912A1570912B1580912C1590912D150E941BF1A5019401FD
:203440000E94F8F16C966CAF7DAF8EAF9FAF6C9728A939A94AA95BA9CA01B9010E9457EDF5
:2034600020E030E040E05FE30E9457ED9B01AC0160E070E080E89FE30E941BF12C966CAFA6
:203480007DAF8EAF9FAF2C9768962CAD3DAD4EAD5FAD689729873A874B875C874D865E860E
:2034A0006F86788A6091240270912502072E000C880B990B0E94F8EC20916D0230916E0287
:2034C00040916F02509170020E9457ED2AE037ED43E25CE30E9457ED68A379A38AA39BA367
:2034E0000E94D3DB9B01AC0128533F4F4F4F5F4F60962CAF3DAF4EAF5FAF609748A459A436
:203500006AA47BA422242394312C39E13CAB4CAD5DAD4215530509F413C10E94E7A20E94D3
:20352000D3DBDC01CB0160962CAD3DAD4EAD5FAD6097821B930BA40BB50BB7FD11C00E94AC
:20354000D3DB9B01AC0128533F4F4F4F5F4F60962CAF3DAF4EAF5FAF609780E00E9492B517
:203560003CA931503CAB332309F441C02CA53DA54EA55FA52C966CAD7DAD8EAD9FAD2C97B1
:203580000E9457ED6B017C019201A30168A979A98AA99BA90E9457EDA70196010E941CF1A7
:2035A0007B018C019201A3012C966CAD7DAD8EAD9FAD2C970E9457ED4B015C012CA53DA53A
:2035C0004EA55FA568A979A98AA99BA90E9457ED9B01AC01C501B4010E941BF12B013C0189
:2035E000C701D8018CA79DA7AEA7BFA74DC0B10180E090E00E94F6EC28A939A94AA95BA93B
:203600000E9457ED4B015C010E94F5F16B017C01C501B4010E947DF34B015C01A701960135
:2036200068A579A58AA59BA50E9457ED2B013C0128AD39AD4AAD5BADC501B4010E9457ED86
:20364000A30192010E941CF12B013C01A501940168A579A58AA59BA50E9457ED4B015C01B7
:2036600028AD39AD4AAD5BADC701B6010E9457ED9B01AC01C501B4010E941BF16CA77DA782
:203680008EA79FA749E14CAB9201A30124966CAD7DAD8EAD9FAD24970E941CF169837A8380
:2036A0008B839C832CA53DA54EA55FA528966CAD7DAD8EAD9FAD28970E941CF16D837E834C
:2036C0008F83988764962CAD3DAD4EAD5FAD649769857A858B859C850E941CF169877A873C
:2036E0008B879C876C962CAD3DAD4EAD5FAD6C976D857E858F8598890E941CF16D877E87F4
:203700008F87988B80912602882321F0CE0101960E94F3B3E09002108E01005E1F4F9E0151
:20372000235F3F4FAE01475F5F4FBE016B5F7F4FCE0101960E945A7C5FEF251A350AE7CEC0
:20374000E09002108E01005E1F4F2AE235E146E255E162E275E18EE195E10E945A7C0E9473
:203760005A320E9464320C94512B0E946F32F80184918F010F5F1F4F8111F7CFE9EDF1E0AD
:2037800084918F010F5F1F4F882311F40C94512B0E946F32F801F4CF80E50E947631882384
:2037A00029F00E94D4306B017C0103C0C12CD12C760183E50E947631882361F00E941431A9
:2037C00020E030E04AE754E40E9457ED0E9465F26B017C010E9483A680912C02811105C047
:2037E00060E08FEE91E00E94C2B00E9464328091161590911715A0911815B0911915C80E23
:20380000D91EEA1EFB1E0E94D3DBDC01CB018C199D09AE09BF09B7FD02C00C94512B80E0DB
:203820000E9492B5F0CF0091480481E00827F0904904F82610914A041827011105C0F11082
:2038400003C011F40C945C2BE7E8F4E284916F019FEFC91AD90A811103C0E9E1F2E004C046
:203860000E946F32F601F2CF84916F01AFEFCA1ADA0A882321F00E946F32F601F5CF002385
:2038800069F0E7E1F2E084916F01BFEFCB1ADB0A882321F00E946F32F601F5CFFF2069F006
:2038A000E5E1F2E084916F012FEFC21AD20A882321F00E946F32F601F5CF112319F0E3E15A
:2038C000F2E003C0EBE0F2E00BC084916F013FEFC31AD30A8823B1F30E946F32F601F5CF31
:2038E00084916F014FEFC41AD40A882321F00E946F32F601F5CF112319F04BEE52E002C025
:203900004EE453E0FF2019F02DEE32E002C02EE433E0002319F08FEE92E002C08EE493E044
:203920005F934F933F932F939F938F9389EF91E09F938F931F920E94B7A60FB6F894DEBFF0
:203940000FBECDBF0C94512B0E9483A680916D0290916E02A0916F02B09170028093A70304
:203960009093A803A093A903B093AA0380912402909125029093A6038093A50384E690E0CA
:2039800090932502809324020E94643281E080934E1188E50E944731F82E89E50E94473164
:2039A000082F8AE50E944731E82EF11005C0011105C011E0182705C0011102C010E001C01A
:2039C000182F0E94FE31111105C0F11003C0002309F40CC180E090E0A0E8B0E480932615FD
:2039E00090932715A0932815B09329159C01AD0160915A0870915B0880915C0890915D087A
:203A00000E94F2EC87FF0BC019821A821B821C82BE016F5F7F4F86E295E10E94DE2F111159
:203A20000EC0F11003C00111DBC0E0C0011107C080E090E00E9462B41123A9F3D1C0109243
:203A40005608109257081092580810925908109252081092530810925408109255080E946A
:203A60005D30E3E2F6E294919CA7E7E1F6E285909590A590B490EBE1F6E24590559065900E
:203A80007490A5019401C301B2010E94F2EC87FF05C0A5019401C301B20104C0A3019201F8
:203AA000C501B4010E94F8F168A779A78AA79BA746EDC42E45E2D42EF60165917591859107
:203AC00094915AED252E55E2352EF10125913591459154910E94F2EC87FF02C0F60101C0E4
:203AE000F10185919591A591B491D82EC92E3A2E2B2E28A539A54AA55BA5CA01B9010E949E
:203B000057ED20E030E040E85FE30E941CF10E9487F32D2D3C2D432D522D0E9457ED6CA375
:203B20007DA38EA39FA3E4E2F6E2D49020E030E040EC5FE3C301B2010E9457ED2B013C01AC
:203B40006D2DDD0C770B880B990B0E94F8EC9B01AC01C301B2010E9457ED69837A838B8306
:203B60009C8320E030E040EC5FE3C501B4010E9457ED4B015C01ACA56A2FAA0F770B880BE6
:203B8000990B0E94F8EC9B01AC01C501B4010E9457ED68A379A38AA39BA39E012C5D3F4F09
:203BA0004AE558E0BE016F5F7F4FCE0180960E94F32E10924704109256081092570810920B
:203BC0005808109259081092520810925308109254081092550811112BCFF11029CF23CF85
:203BE00081E090E00E9462B4111102C0EE2021F082E090E00E9462B40E945D3080914D1111
:203C000080934E118091A7039091A803A091A903B091AA0380936D0290936E02A0936F0227
:203C2000B09370028091A5039091A60390932502809324020E94643283E0809376020E9401
:203C400097CE0C94512B1092A4030C94512B81E08093A4030C94512B0E9414312B013C01F7
:203C6000D7012D913D914D915C910E941BF14B015C012DEB37E346E855EB0E9442F387FDC3
:203C800018C02DEB37E346E855E3C501B4010E94F2EC181674F01F5FF4E0EF0EF11C143087
:203CA000A1F0F10181911F010E947631882399F3D3CF133011F401E002C0DD24D394F701E2
:203CC0004082518262827382E6CFDD2019F00E945D3003C001110E943A3A0E9497CE0C94FA
:203CE000512B80918714909188148337910509F4BAC10CF0C6C08C34910509F407C40CF07B
:203D00006AC08831910509F49EC2ACF58231910509F4D3C5BCF497FF02C00C94512B823078
:203D200091050CF4A3C1419711F00C94512B60E082E592E00E94C2B04298179815982E986B
:203D40000C94512B8531910509F462C23CF4449711F00C94512BE0E7F2E01AC286319105F0
:203D600009F45AC2479711F00C94512BE0918514F09186145BC28E31910509F482C2C4F49F
:203D80008A31910509F46BC20CF463C28B31910509F473C24C9711F00C94512B40E060E09F
:203DA00080918514909186140E94B73D0C94512B8032910509F469C20CF4B1C28A329105B7
:203DC00009F463C38B34910511F00C94512B0E94FB390C94512B8936910509F4C3C424F56A
:203DE0008335910509F465C57CF48135910509F443C50CF05BC58D34910511F00C94512BFD
:203E00000E949EA60C94512B8535910509F48AC50CF453C58C35910509F49DC588369105E2
:203E200009F478C30C94512B8E36910509F4C9C39CF48B36910509F40FC50CF4EAC48C3623
:203E4000910509F443C48D36910511F00C94512B0E9465CF0C94512B8037910509F439C419
:203E60000CF4C2C38137910509F437C48237910511F00C94512B0E9483A60E9497CE0C9499
:203E8000512B823221E0920711F40C949F280CF06CC08E3B910509F4A7C49CF58837910517
:203EA00009F474C6A4F48637910509F42DC60CF06AC68537910511F00C94512B60E0809104
:203EC0008514909186140E94E4B00C94512B8C38910509F42CC45CF48937910511F00C94AE
:203EE000512B10924E1110924D110C94512B8139910509F451C68B39910509F450C40C94BA
:203F0000512B8D3C910509F4B6C7ACF4893C910509F40AC734F4883C910509F4B5C60C94E9
:203F2000512B8B3C910509F421C78C3C910509F438C70C94512B8C3D910511F40C942228FF
:203F400044F4833D910511F00C94512BE7E8F4E2FDC78D3D910511F40C942F28823E91059B
:203F600011F40C9476280C94512B893941E0940711F40C943E2AACF58F32A1E09A0711F4CE
:203F80000C94382A84F48D32E1E09E0711F40C94D32814F00C94E8298C32914011F40C94F9
:203FA000AA280C94512B833631E0930711F40C94512A3CF48033914011F40C9471290C94FC
:203FC000512B8039A1E09A0711F40C943B2A8839914011F00C94512B81E0809394100C9419
:203FE000512B873FE1E09E0711F40C94472AFCF4843F21E0920711F40C94412A4CF48A39A3
:20400000914011F00C94512B0E9410C90C94512B853F51E0950711F40C94442A863F9140E1
:2040200011F00C94512B0E943AD10C94512B803AB3E09B0709F466C14CF48835924011F0B7
:204040000C94512B0E94FC520C94512B873E23E0920711F40C948A2A893D974011F40C943C
:204060009C2A0C94512BE5E1F4E0FDC4A0908514B090861480E50E947631882359F00E941C
:20408000D4306B017C0111E0672B682B692B31F410E004C010E0C12CD12C760183E50E9455
:2040A00076318823F1F00E94143120E030E04AE754E40E9457ED0E9465F26B017C01111183
:2040C00012C0672B682B692B71F4A114B10459F0D5018C91882339F061E0C5010E94E4B039
:2040E0000FC0112391F360E080E492E00E94C2B01092421410924314109244141092451429
:2041000083E090E090930D1580930C1581E0809341140E9483A60E946432C114D104E104F8
:20412000F104E1F08091161590911715A0911815B0911915C80ED91EEA1EFB1E0E94D3DB25
:20414000DC01CB018C199D09AE09BF09B7FF1CC08091411481110C94802B16C080914114DB
:20416000882321F080E00E9492B5F8CF80916D1190916E1160E0029719F481E392E002C0C6
:204180008FE192E00E94C2B0109241140C94512B84918F010F5F1F4F882321F00E946F3296
:2041A000F801F6CF10922D1410922C1486EB91E10E94F2BC8BE1E6EBF1E1DE01159601901F
:2041C0000D928A95E1F78091B4119091B5119C838B8383E992E09A83898340E050E0BE0149
:2041E0006F5F7F4F8EE493E00E946BA9CE0101960E9430B5E1E6F2E084918F010F5F1F4F81
:20420000882311F40C94512B0E946F32F801F4CF0E946F3C0C94512B10927D1110927E1109
:204220000C94512B803209F41082319680818111F9CF40E061E080918514909186140E9497
:20424000B73D0C94512B0E9487390E94FB390C94512B10927D110E94783A0C94512B809149
:204260007E11882311F40C94512B83E50E94763181110C94852B0C94512B0E94C8D80C9452
:20428000512B0E9472360C94512B80917D1181110E9483A680917E11882311F40C94512BD4
:2042A00080E50E947631882319F00E94053103C080E50E944731182F482F61E080918514D9
:2042C000909186140E94B73D83E50E947631882381F00E94E430AB01BC014093AE1150932C
:2042E000AF116093B0117093B1118AE793E10E94ABBA0E94873911110C94512B0E94FB3923
:204300000C94512B809185149091861421E020937C1140E060E00E94B73D0C94512B0E9427
:2043200051397B018C0120E831E541E050E00E94E0F0C9016DE671E00E94E0F34B015C017D
:20434000C801B70120E13EE040E050E00E94E0F0CA01B90128E130E040E050E00E94E0F09B
:20436000762E672EC62ED72E9CE3292E312C412C512CC801B701A20191010E94E0F0F62EA2
:20438000E72ECA01B901A20191010E94E0F0CB018E010F5F1F4F8114910499F0EF92FF92E0
:2043A0007F936F936F927F92BF92AF929F928F9289EA92E09F938F931F930F930E948CEC4C
:2043C00013C0A114B104B1F0EF92FF927F936F936F927F92BF92AF9289E992E09F938F93FD
:2043E0001F930F930E948CEC0FB6F894DEBF0FBECDBF30C0CD2879F0EF92FF927F936F9394
:204400006F927F928DE892E09F938F931F930F930E948CECE9CF892B69F0EF92FF927F93F8
:204420006F9385E892E09F938F931F930F930E948CECDACFEF92FF9281E892E09F938F93EF
:204440001F930F930E948CEC0F900F900F900F900F900F9060E0C8010E94E4B0E7E8F4E250
:2044600084917F019FEFE91AF90A882321F00E946F32F701F5CFB8018DEB92E00E94415280
:204480008AE00E946F320C94512B83E50E947631882311F40C94512B0E94F430E82E80E595
:2044A0000E947631882341F00E94E4308B0177FF02C00C94512B02C006E010E0202FE2EC8C
:2044C000F5E08AEE95E03491231303C0ECEFFBE009C031968E179F07B1F70C94952B0E9421
:2044E0006F32F80184918F010F5F1F4F8111F7CFEAECF2E084918F010F5F1F4F882311F470
:204500000C94512B0E946F32F801F4CF0E94783A0C94512B88E690E00E94823581110C94A7
:20452000512B8091F50F83FF02C00C94512B83E50E947631882309F440C00E9414310E94A8
:2045400060F2709363156093621580E00E94A99E0E94143120E030E04AEA52E40E94F2ECFA
:2045600018163CF00E949EA660E080EE92E00E94C2B00E94143120914A1430914B144091E0
:204580004C1450914D140E9442F31816B4F485EF92E09F938F938091BB1090E001969F937D
:2045A0008F9389ED92E09F938F931F920E94B7A60FB6F894DEBF0FBECDBF0E94CC520C9446
:2045C000512B8EE40E947631882311F40C94512B0E94E430609374087093750880937608A2
:2045E000909377080C94512B83E50E944731882359F083E50E947631882319F00E94F4305C
:2046000001C080E08093F50FE7E8F4E284918F010F5F1F4F811103C0EDEFF2E004C00E94D3
:204620006F32F801F3CF84918F010F5F1F4F882321F00E946F32F801F6CF8091F50F811139
:2046400003C0E9EFF2E034C08FEEC82E82E0D82EE12CF12C20E08091F50F90E00E2C02C073
:20466000959587950A94E2F780FF17C0BB24B394B20E222319F08CE20E946F32F601859135
:204680009491FC0184918F010F5F1F4F882321F00E946F32F801F6CF2B2DBFEFEB1AFB0AAA
:2046A000E2E0CE0ED11CF5E0EF16F104A1F60AC084918F010F5F1F4F882321F00E946F32BF
:2046C000F801F6CF8AE00E946F32EBC710921D02E8C784E093E00E9443B583E50E9476312B
:2046E000811103C0E7E8F4E20BC00E94F4308D3318F480937102D5C78CE380937102D1C7B4
:2047000084918F010F5F1F4F882321F00E946F32F801F6CF4091710250E060E070E089E1ED
:2047200093E00E94EE518AE00E946F32BAC78091F50F83FF01C0B5C783E50E9476318823C7
:2047400009F4AFC70E9414310E9460F26739710514F066E970E070936115609360150E94CF
:204760005D9E9FC789E690E00E948235811111C0E0E2F3E084918F010F5F1F4F882321F06B
:204780000E946F32F801F6CF0E94DA9D8AE00E946F3210920D1510920C150C94722D83E524
:2047A0000E947631882309F47CC70E94F430182F8D3308F01CE3109312150E94D3DB6B017B
:2047C0007C01212F30E0A8EEB3E00E940CF1C60ED71EE81EF91EC0920E15D0920F15E092E1
:2047E0001015F09211155DC78091F50F83FD59C760E08BE393E00E94C2B083E50E9476312D
:2048000088AF8111A8C782E50E9476318111A3C748C780E50E947631811108C083E50E9493
:204820007631811108C03FEF20E009C00E94F430811137C7F3CF0E94E430362F272F832F45
:20484000922F8F3F910519F010F08FEF90E0909365158093641525C780E50E9476318111E7
:2048600005C010926515109264151BC70E94E430672B09F016C7F5CF0E94F59E0E9483A678
:204880000E943AB5109265151092641568EE73E080E090E00E9421AF0E9483A60E94E52FE4
:2048A00060E08EE493E00E94C2B0FBC61092A303F8C681E08093A303F4C683E50E94763173
:2048C000882399F00E94143120E030E04AE754E40E9457ED0E9465F2609372027093730286
:2048E0008093740290937502DCC688E50E94473181110C94F12C89E50E94473181110C9463
:20490000F12C8AE50E94473181110C94F12C85E40E94473181110C94F12C0E9483A60E9463
:204920003AB5BFC683E50E944731882309F4B9C60E94143120E030E04AE754E40E9457ED14
:204940000E9465F260931A1570931B1580931C1590931D15A6C619E7C12E12E0D12E02E63C
:20496000E02E08E0F02E10E0D6018D916D010E944731882309F46DC0133009F063C00E94E0
:2049800014314B015C0120E030E040EA51E40E94F2EC87FF4EC0A501940160916E08709103
:2049A0006F0880917008909171080E94F8F12B013C019B01AC0160919010709191108091DC
:2049C0009210909193100E9457ED60939010709391108093921090939310A30192016091B1
:2049E000D90A7091DA0A8091DB0A9091DC0A0E9457ED6093D90A7093DA0A8093DB0A909334
:204A0000DC0A60911F107091201080912110909122100E94F6ECA30192010E9457ED0E9487
:204A200065F260931F1070932010809321109093221080926E0890926F08A0927008B09224
:204A4000710807C00E941431F70160837183828393831F5FF4E0EF0EF11C143009F084CF59
:204A60000E94307C1EC684918F010F5F1F4F882321F00E946F32F801F6CF60E085E094E0AD
:204A80000E9460CE61E08EEF93E00E9460CE61E083EF93E00E9460CE61E083EE93E00E9488
:204AA00060CE60E08AED93E00E9460CE61E080ED93E00E9460CE60E086EC93E00E9460CEE8
:204AC00060E08EEB93E00E9460CE60E080EB93E00E9460CE60E082EA93E00E9460CE60E0BD
:204AE00083E993E00E9460CE61E085E893E00E9460CE61E08FE693E00E9460CE60E08EE56A
:204B000093E00E9460CECDC585E40E947631882319F00E94053103C085E40E944731882391
:204B200061F0E7E8F4E284918F010F5F1F4F882321F00E946F32F801F6CF81E40E94763193
:204B4000882319F00E94053103C081E40E944731882361F0EAEDF4E084918F010F5F1F4F5F
:204B6000882321F00E946F32F801F6CF0091851410918614D8018D918D01882309F4A2CD77
:204B80000E946F32F7CF0E94E3918BC581E080934E1180934D1185C583E50E9476318823BC
:204BA00019F00E94E43002C060E070E08B01112702301105D4F0ECEFFBE084918F010F5F4B
:204BC0001F4F811103C0EEEDF4E004C00E946F32F801F3CF84918F010F5F1F4F882309F478
:204BE00060C50E946F32F801F5CF88E40E9476318823A9F00E94E4306A3A71053CF0653006
:204C0000B1E07B072CF064E071E002C06AEA70E0F801EE0FFF1FE354F54F7183608386E49A
:204C20000E9476318823A9F00E94E430F801EE0FFF1FEF53F54F718360836F3F710519F093
:204C400014F06FEF70E077FF02C060E070E07183608382E40E947631882309F422C50E9423
:204C6000E4306530710534F0683871052CF067E870E002C065E070E0000F111FF801E75456
:204C8000F54F718360830DC588EC90E00E948235811107C584E40E944731882309F441C061
:204CA0000E9414316B017C0111E020E030E0A9010E94F2EC811101C010E01093991020E06A
:204CC00030E0A901C701B6010E94F2EC882349F10E941431E091BB1024E0E29FF001112468
:204CE000EB56FF4E608371838283938320E030E0A901609195107091961080919710909164
:204D000098100E94F2EC81110CC080E090E0A0EEBFE38093951090939610A0939710B0936F
:204D200098100E94C86EBDC459E7E52E52E0F52E08E610E168E7C62E60E1D62ED7018D916D
:204D40007D010E944731882349F00E9414310E9465F2F80160837183828393830C5F1F4F33
:204D6000C016D10659F70E94127B9BC449E7E42E42E0F42E0DEC1AE0D7018D917D010E9419
:204D80004731882339F00E941431F80160837183828393830C5F1F4FFAE00D3D1F0761F77A
:204DA00080C483E50E9447318823D9F00E941431AB01BC014093801050938110609382100D
:204DC00070938310409378105093791060937A1070937B108AE595E00E940B528AE00E947C
:204DE0006F3280E50E944731882399F00E941431AB01BC01409380105093811060938210B3
:204E0000709383108DE395E00E940B528AE00E946F3282E50E944731882399F00E941431CF
:204E2000AB01BC0140937C1050937D1060937E1070937F108EE195E00E940B528AE00E9438
:204E40006F3284E50E944731882309F42AC40E941431AB01BC01409378105093791060938E
:204E60007A1070937B1080E095E00E940B528AE00E946F3216C483E50E944731882351F051
:204E80000E9414316093C90A7093CA0A8093CB0A9093CC0A84E50E944731882351F00E949C
:204EA00014316093C50A7093C60A8093C70A9093C80A82E40E944731882351F00E94D4302D
:204EC00060930F1070931010809311109093121088E50E944731882351F00E9414316093D7
:204EE000841070938510809386109093871089E50E944731882351F00E941431609388103D
:204F00007093891080938A1090938B108AE50E944731882351F00E94143160938C1070939C
:204F20008D1080938E1090938F1085E40E944731882309F4B6C30E94143160939010709340
:204F400091108093921090939310ABC384918F010F5F1F4F882321F00E946F32F801F6CF89
:204F600083E50E944731882321F00E94053180932602E2EBF5E084918F010F5F1F4F882312
:204F800021F00E946F32F801F6CF80912602882319F0E2EAF5E002C0EBEAF5E084918F0160
:204FA0000F5F1F4F811103C0EAE9F5E004C00E946F32F801F3CF84918F010F5F1F4F88232A
:204FC00021F00E946F32F801F6CF40E050E0BA0188E995E00E940B5240E050E0BA0185E956
:204FE00095E00E940B5240E050E0BA0182E995E00E940B52EAE8F5E084918F010F5F1F4F2B
:20500000882321F00E946F32F801F6CF40E050E066E673E488E895E00E940B5240E050E0AC
:205020006CE573E485E895E00E940B5240E050E062E873E482E895E00E940B528AE00E940C
:205040006F322FC383E50E947631882309F429C30E94E430709325026093240222C38DED20
:2050600090E00E94823581111CC383E50E947631882309F416C30091BB1010E00E94E430C2
:20508000000F111FF801EE5DFD4F718360838091BB1090E08C01000F111F000F111F98017A
:2050A000225E3D4F7901880F991FFC01EE5DFD4F60817181072E000C880B990B0E94F8ECB6
:2050C0002AE037ED43E25CE30E9457EDF801EA50F04F20813181428153810E9457EDD7013E
:2050E0006D937D938D939C931397DBC280E50E944731882309F4D5C20E94E4306B017C01AD
:2051000083E50E947631882321F00E94E4308B0102C00FEF1FEFC8010196039708F0C1C29D
:20512000D7FCBFC28C2DE2ECF5E09491891709F4B8C23196B5E0EA3EFB07B9F7AAC48AE570
:205140000E94763181116CC483E50E947631811167C4A7C283E50E947631882319F00E9466
:20516000E43002C064E071E079A368A380E50E947631882339F00E94E4306938E3E17E077B
:2051800030F402C068EE73E07A83698304C088E893E19A838983BE01605E7F4FCE01019615
:2051A0000E94C7397EC285E40E947631811110C080E50E944731882391F00E941431609374
:2051C000AC0A7093AD0A8093AE0A9093AF0A07C00E94F430882361F3ECEFFBE071C089E4D8
:2051E0000E944731882381F00E9414312CEA35EC47E25EE30E9457ED6093B40A7093B50A98
:205200008093B60A9093B70A84E40E944731882381F00E9414312CEA35EC47E25EE30E940F
:20522000F8F16093B00A7093B10A8093B20A9093B30AE7E8F4E284918F010F5F1F4F88239A
:2052400021F00E946F32F801F6CF4091AC0A5091AD0A6091AE0A7091AF0A82EF95E00E9432
:205260000B522CEA35EC47E25EE36091B40A7091B50A8091B60A9091B70A0E94F8F1AB01D7
:20528000BC018EEE95E00E940B522CEA35EC47E25EE36091B00A7091B10A8091B20A90916B
:2052A000B30A0E9457EDAB01BC018AEE95E00E940B528AE00E946F32F4C10E946F32F80158
:2052C00084918F010F5F1F4F8111F7CF03E013E0D8018D918D01882309F4F4C90E946F32F2
:2052E000F7CF80E5D4D7882349F09ED76093AF107093B0108093B1109093B21089E4C7D746
:20530000882379F091D72CEA35EC47E25EE30E9457ED6093AB107093AC108093AD1090932A
:20532000AE1084E4B4D7882379F07ED72CEA35EC47E25EE30E94F8F16093A7107093A810C2
:205340008093A9109093AA10E7E8F4E284918F010F5F1F4F882321F00E946F32F801F6CFC1
:205360004091AF105091B0106091B1107091B2108EEF95E00E940B522CEA35EC47E25EE3F5
:205380006091AB107091AC108091AD109091AE100E94F8F1AB01BC018AEF95E00E940B5216
:2053A0002CEA35EC47E25EE36091A7107091A8108091A9109091AA100E9457EDAB01BC01F7
:2053C00086EF95E00E940B528AE00E946F3269C183E55DD7182F882369F026D70E9460F235
:2053E00070936C0260936B0221E0672B09F020E020934E1480E54BD7882351F020916B02AA
:2054000030916C02232B09F000D780934E1449C1111147C1E7E8F4E284918F010F5F1F4F70
:20542000882321F00E946F32F801F6CF80914E14882319F061E573E002C061EF72E087E123
:2054400096E00E94415260916B0270916C0286E096E00E942852E2E0F6E084918F010F5F31
:205460001F4F882309F41DC10E946F32F801F5CF0E946FC916C10E9483A613C110929410A2
:2054800010C10E94A8650DC10E9468D20AC183E5FED6882319F0B9D691E089270E94439200
:2054A00000C180E523D7882329F09ED680931F0411E001C010E083E519D7882321F0A5D62D
:2054C0008093200401C011110E9429DCE7E8F4E284918F010F5F1F4F882321F00E946F32E6
:2054E000F801F6CF8091200481110AC004E113E0F80181918F01882309F4E4C8F0D7F8CF08
:2055000060911F0470E08AE296E00E9428528AE0E6D7C7C081E08093270210920E1183E5B5
:20552000E5D6882311F071D602C083E5B0D68111B8C00E94F6B8B5C086E5A9D6882349F070
:2055400073D6609300027093010280930202909303021DA21CA282E793E099A388A39E0169
:205560002C5D3F4F44E050E060E072E0CE0180960E943C658CA19DA19A838983E8A0F9A051
:2055800080E793E099A388A39E012C5D3F4F42E050E0BE016F5F7F4FCE0180960E943C653F
:2055A000E7E8F4E284918F010F5F1F4F882319F096D7F801F7CFB7016057734086E596E0E2
:2055C0000E94285249815A8160E070E08AE396E00E94EE51E7E3F6E084918F010F5F1F4F95
:2055E000882319F07CD7F801F7CFE8E6F6E084918F010F5F1F4F882309F453C070D7F801C5
:20560000F6CFF0908714FF2001F1E7E8F4E284918F010F5F1F4F882319F061D7F801F7CFC8
:2056200084E55DD76F2D70E080E090E04AE00E94173580E254D703E013E0D8018D918D0111
:20564000882309F43FC84BD7F8CF10920210E7E8F4E284918F010F5F1F4F882319F03FD70E
:20566000F801F7CF6091021070E083E796E00E9428528AE034D715C084918F010F5F1F4F51
:20568000882319F02CD7F801F7CF609114157091151585E896E00E94415282E220D78AE072
:2056A0001ED710920D1510920C150E94D7B81AC229D60E94FCB7F5CF80E090E0A0E4B0E461
:2056C00089839A83AB83BC838D839E83AF83B88780E090E0A0E2B1E489879A87AB87BC8705
:2056E00080E504D6882351F06FD568A3BE016F5F7F4FCE0180960E94C090D3CF60E0F5CF58
:2057000080E00E9492B50C949E205ED5AB01BC014093AE115093AF116093B0117093B11198
:205720008AE793E10E94ABBABCCF61E0802F0E9473DA6E2D802F0E9445DAF12CB701802F84
:205740000E94AFDA0930110509F0ABCFF0926515E0926415A6CF68D50E9460F267397105B9
:2057600014F066E970E070936115609360150E945D9E5AD520E030E040EA50E40E9442F394
:20578000181614F40E94FB3981E080931D02809102108093BB101CA61DA61EA61FA618AA99
:2057A00019AA1AAA1BAA18A61CAE2CE32CAB3CE121963FAF219746E425964FAF2597E12C09
:2057C000F12C00E81FEB812C912C54016091601570916115072E000C880B990B0E94F8EC20
:2057E000762E672E582E492E9701A8010E94F2EC882339F1209136103091371040913810C5
:205800005091391088AD672D762D811109C0852D942D0E94F2EC881F8827881F88A717C0A1
:20582000852D942D0E94F2EC87FF10C080911D02882309F436CF60E083E293E00E94C2B016
:2058400030CF7E2C6F2C502E412E01C018A60E94D3DB6B017C01DC01CB0128A939A94AA910
:205860005BA9821B930BA40BB50BB7FD37C0D701C60188519C4FAF4FBF4F88AB99ABAAAB94
:20588000BBAB0E94DA9DE7E3F3E084918F010F5F1F4F882319F023D6F801F7CF81149104D5
:2058A000A104B104B9F0D501C401805F984DAF4FBF4FBC01CD016C197D098E099F0928EE8F
:2058C00033E040E050E00E94E0F0CA01B9010E94BE3502C08FE303D68AE001D680E00E9489
:2058E00092B5F2D5209036103090371000913810109139109101A801672D762D852D942DF5
:205900000E941BF19F7781149104A104B10449F420E030E040E85FE30E94F2EC87FF0BC0B7
:2059200008C020E030E040E450E40E9442F3181614F44601570198A59923B9F12CA53DA535
:205940004EA55FA5211531054105510541F0D701C601821B930BA40BB50BB7FD26C09101A2
:20596000A8016CAD7CA921968FAD219725969FAD25970E941BF120E030E040EC5FE30E9404
:20598000F2EC87FD53CFD701C601805A9541AF4FBF4F8CA79DA7AEA7BFA72CAE3CAA21967F
:2059A0000FAF219725961FAF259780911D02882309F43CCF81149104A104B10429F4E72C95
:2059C000F62C052D142D02CF90E1C91A97E2D90AE108F108C818D908EA08FB08F7FE26CF2F
:2059E000EECF0E9483A688E552D4882319F0429A10924B0489E54BD4882319F0179A109277
:205A00004C048AE544D4882319F0159A10924D0485E43DD4882309F444CE0E9438B541CE87
:205A200003D420E030E040E050EC0E94F2EC87FD10C0FAD320E030E040E050E40E9442F347
:205A4000181614F0F1D309C060E070E080E090E404C060E070E080E090EC20914D042223AC
:205A600009F41FCE0091F30F1091F40F20916A0830916B0840916C0850916D080E9457ED2D
:205A80000E9460F2600F711F7093F40F6093F30F08CE0E9483A6BC2C60E08C2D0E9473DAA7
:205AA0000F3FBFEF1B0759F48C2D0E941DDA31E020E0892B09F030E0032F122F05C00130F2
:205AC000110569F401E010E08B2D0E941DDA8017910709F4E6CD80E00E9492B5F5CF00E065
:205AE00010E0F2CFC55ADF4F0FB6F894DEBF0FBECDBFDF91CF911F910F91FF90EF90DF90C4
:205B0000CF90BF90AF909F908F907F906F905F904F903F902F9008959091EE0FE92FF0E03D
:205B2000EF5DFB4F80839F5F9A3018F49093EE0F02C01092EE0F80910F088F5F80930F0837
:205B40000895089580E090E008958FB7F89490910B1520910A15921759F0E92FF0E0E657A4
:205B6000FB4E208130E09F5F9F7790930B1502C02FEF3FEF8FBFC9010895EF920F931F933C
:205B8000E09002100DE612E02EE538E04AE558E066E578E082E598E00E945A7C1F910F91C2
:205BA000EF9008950F931F93CF93DF93EC010E94D3DB0E811F812885398501151105210578
:205BC000310559F52C852223A9F13A8521502C8721E0230F2A874D85241301C01A86FE0181
:205BE00024E0329FE00DF11D112406851785208931890A831B832C833D83DC01CB01800F44
:205C0000911FA11DB11D8E839F83A887B9878C819D81892B79F05B9A0DC0DC01CB01801B58
:205C2000910BA20BB30BB7FD05C05B981E821F8218861986DF91CF911F910F910895CF9255
:205C4000DF92EF92FF92CF9381E080931D02C1E081E090911D02992309F449C0882309F420
:205C600046C080E00E9492B560916215709163156115710581F1072E000C880B990B0E947C
:205C8000F8EC9B01AC0160914A1470914B1480914C1490914D140E941BF16B017C0120E09E
:205CA00030E0A9010E9442F318165CF020E030E040E450ECC701B6010E94F2EC87FD0DC019
:205CC0000AC020E030E040E450E4C701B6010E9442F3181614F080E0BCCFC0933A1440E05E
:205CE00050E0BA0185E494E80E94DD87B1CFCF91FF90EF90DF90CF900895CF92DF92EF9222
:205D0000FF920F931F93CF93DF9300D01F92CDB7DEB7182F662351F01092180410921404A7
:205D20001092150410921604109217040E94D3DBC0901404D0901504E0901604F0901704D9
:205D40009B01AC012C193D094E095F0957FD3EC017FD16C040911804212F012E000C330BBE
:205D60002C5F3F4FE42F042E000CFF0B2E173F076CF141172CF000E911E020E030E004C0A5
:205D800004EC19E020E030E0DC01CB01800F911FA21FB31F8093140490931504A0931604DB
:205DA000B093170480ED97E09C838B838CE291E09A838983BE016D5F7F4FCE0101960E940B
:205DC000C739809118048F5F809318040F900F900F900F90DF91CF911F910F91FF90EF90CF
:205DE000DF90CF9008952F923F924F925F926F927F928F929F92AF92BF92CF92DF92EF928B
:205E0000FF920F931F93CF93DF9300D01F92CDB7DEB79A8389831B018A013C832B83409022
:205E20006D0250906E0260906F0270907002F901E080F1809280838020E030E0A901B7017E
:205E4000892D982D0E94F2EC811109C0EEEDF5E285919591A591B4917C019A2E8B2EF8018C
:205E6000208131814281538160915A0870915B0880915C0890915D080E94F2EC87FF19C0A7
:205E8000C701A92DB82D80936D0290936E02A0936F02B0937002F80180819181A281B381AE
:205EA00080935A0890935B08A0935C08B0935D0864DEEB81FC81A080B180C280D38020E097
:205EC00030E0A901C601B5010E94F2EC811107C085E5A82EBA2C85E0C82E83E4D82EA09292
:205EE0006D02B0926E02C0926F02D0927002E981FA8180819181A281B3818093520890930B
:205F00005308A0935408B0935508F10180819181A281B3818093560890935708A093580815
:205F2000B09359082ADEF801208131814281538160915A0870915B0880915C0890915D0820
:205F40000E9442F31816CCF4C701A92DB82D80936D0290936E02A0936F02B0937002F80192
:205F600080819181A281B38180935A0890935B08A0935C08B0935D0800DE0E9483A6409202
:205F80006D0250926E0260926F02709270020F900F900F900F90DF91CF911F910F91FF903E
:205FA000EF90DF90CF90BF90AF909F908F907F906F905F904F903F902F9008959B01AC0168
:205FC00066E578E082E598E00ECF809A88980895CF93FC0120812B33A1F020910F082A307A
:205FE00080F4C62FBC018091EE0FF0E68F9FC0011124825B9B4F0E9485F48C2F8DDD81E00B
:2060000001C080E0CF910895DF92EF92FF920F931F93CF93DF93CDB7DEB76E970FB6F89448
:20602000DEBF0FBECDBF60910C1170910D116115710549F14DE150E0CE0101967C010E9434
:2060400063EC1E8EF7018F010E191F09D190DD2019F09AE0D912F7CFF701E00FF11F108253
:20606000C7010E94A6A7882371F0DD20A9F00F5F1F4F80910C1190910D11080F191F10938C
:206080000D1100930C1181E020910C1130910D11232B29F480E003C000E010E0F0CF6E9603
:2060A0000FB6F894DEBF0FBECDBFDF91CF911F910F91FF90EF90DF9008952EE538E04AE505
:2060C00058E066E578E082E598E00C946D7B4F925F926F927F928F929F92BF92CF92DF9225
:2060E000EF92FF920F931F93CF93DF9300D01F92CDB7DEB72A013B01B22EF32E6C01CC0C1F
:20610000DD1CCC0CDD1CC6018E5A974F4C01FC011082118212821382D0DFF401408251824F
:2061200062827382E090021020E030E0A901B8018B2D9F2D0E94F2EC81110AC0F601EA52FE
:20614000FA4D85919591A591B4918C01BA2EFB2EC801AB2DBF2D89839A83AB83BC838E01F1
:206160000F5F1F4F2EE538E04AE558E066E578E082E598E00E945A7C0E9483A610924704FF
:206180000F900F900F900F90DF91CF911F910F91FF90EF90DF90CF90BF909F908F907F90DB
:2061A0006F905F904F9008958091AB039091AC03009731F04AE050E060E070E00C9439EB80
:2061C00060E070E0CB0108958091AB039091AC03009731F04AE050E060E070E00C940EEAFD
:2061E00060E070E0CB010895EFDF97FD0AC0ECDF6F3F71058105910509F02CF4E5DF862FDD
:20620000089580E008958FEF08958091AB039091AC03892B31F0E8DF91E0811103C090E068
:2062200001C091E0892F08950F931F93CF938091AB039091AC030097F1F0FC018F01C1913B
:206240002C2F2F7D89F0C53411F0C536B9F7F801108260E070E00E94BBE8F801C083562FF8
:20626000472F382F292F0BC060E070E0CF911F910F910C94BBE850E040E030E020E0652FA7
:20628000742F832F922FCF911F910F91089581548A3150F5482F50E0FA0193E0F595E795AB
:2062A0009A95E1F7EF57FB4E208130E0877002C0359527958A95E2F7822F817020FF15C0CA
:2062C000FA01E959FB4E9081992339F02091141530911515290F311D02C020E030E0309362
:2062E000AC032093AB03089580E00895D0DF882341F081E02091AB033091AC03232B09F4EE
:2063000080E00895CF92DF92EF92FF920F931F93CF93DF9389E7E82E82E0F82E0EE115E181
:20632000C2E5D8E090EAC92E93E0D92EF70181917F01ADDF8823D9F077DF9B01AC01F601F3
:206340008081811104C08091A403882329F0688179818A819B8103C060E070E0CB010E949F
:206360001CF1F801608371838283938309C088819981AA81BB81F80180839183A283B38367
:206380000C5F1F4F2496FFEFCF1ADF0A8DE7E81682E0F80659F686E4A9DF8823B9F044DF20
:2063A00020E030E0A9010E9442F318167CF43CDF20E030E040E752E40E94F8F160936D0239
:2063C00070936E0280936F0290937002DF91CF911F910F91FF90EF90DF90CF900895FC019B
:2063E000238121110C9495BB089520914B1190914C1181E0291301C080E0089580E1E2E52C
:20640000F8E0AEE1B5E101900D928A95E1F70895CF92DF92EF92FF920F931F93CF93DF93AF
:2064200000D01F92CDB7DEB76A017B0102E518E0E091021024E0E29FF0011124E25EFD4F42
:206440002081318142815381FC0160817181828193810E94F8F1F8012485358546855785DD
:206460000E941CF1F8016487758786879787C6DFC982DA82EB82FC82E09002108E010F5FAC
:206480001F4F2AE235E146E255E162E275E18EE195E10E945A7C0E9483A60F900F900F906F
:2064A0000F90DF91CF911F910F91FF90EF90DF90CF90089580E1EEE1F5E1A2E5B8E00190EE
:2064C0000D928A95E1F708950E94D3DB60931615709317158093181590931915089590919D
:2064E000C00095FFFCCF8093C60008952F923F924F925F926F927F928F929F92AF92BF92AD
:20650000CF92DF92EF92FF920F931F93CF93DF931F92CDB7DEB778DD811175C280910F085F
:206520008A3008F046C011DBAC0197FF8EC141C08E3409F0E8C10115110509F4E4C169EA9F
:2065400077E0C8010E9472EC7C01892B09F49EC16EE470E0C80104960E9471F4009709F4EE
:2065600095C14AE050E060E070E001960E940EEA6093AD037093AE038093AF039093B003B8
:206580008090740890907508A0907608B09077082FEF821A920AA20AB20A681579058A051D
:2065A0009B0509F475C1EF2809F072C186E797E0C0D680917D11882309F425C280910F08F5
:2065C000811102C010921304EE24E3944091AE115091AF116091B0117091B1118091AA11B3
:2065E0009091AB11A091AC11B091AD11481759076A077B0708F4E12C00E010E077247394A4
:2066000080E6682E92EBA92E97E0B92E2EEA822E27E0922E80910F088A3008F0F4C1E110BD
:20662000F2C1809113048111EEC18091821390918313A0918413B09185138093AE1190934B
:20664000AF11A093B011B093B11141E050E0BE016F5F7F4F8AE793E10E941CBE019719F4CF
:20666000898190E002C08FEF9FEFF82E2090AE113090AF114090B0115090B1114091AA11FE
:206680005091AB116091AC117091AD11EE24E394241635064606570608F4E12C24163506CB
:2066A00046065706B0F4019609F47FC08AE0F81609F49EC09DE0F91609F49AC023E2F216F7
:2066C00019F08AE3F812A7C0809112048111A3C084C00E9483A68AE793E10E9495BBB0928F
:2066E0000D11A0920C1190DC80919513882339F18150809395132DE8289FC001112441E0B4
:2067000061E086569C4E0E94B73DE091951384E0E89FF0011124EA56FC4E408151816281B2
:2067200073814093AE115093AF116093B0117093B1118AE793E10E94ABBAE9D516C0109295
:206740007D1181E090E09093A6108093A5100E949EA6A7D56D3371058105910528F090926B
:206760000D1180920C1150DC87D780917D11811138C0E8ECF7E084916F019FEFC91AD90A95
:20678000882319F0ACDEF601F6CF10922B1480917E11882319F00E942AA81FC00E946F3C2A
:2067A00080917E118111F7CF18C0ECEFFBE084916F012FEFC21AD20A882319F090DEF601DF
:2067C000F6CFE9EBF7E084916F019FEFC91AD90A882319F084DEF601F6CF23E2F21208C0CD
:2067E00005C093E2F9120AC100E010E070921304109212040115110509F40CCF8091EE0FD6
:20680000689E000D111D1124F801E25BFB4F108280E082D9F5C00F35110508F0FBCE8BE3F7
:20682000F81202C070921204809112048111F2CE8091EE0FF801689EE00DF11D1124E25B81
:20684000FB4FF0820F5F1F4FE5CE982F20917208309173088A3019F09D3009F09EC0109236
:2068600011042115310509F459CEF901EF54FC4F1082109273081092720801EB13E0F80148
:206880008191803209F054CE8F01F9CFC80169CE6AE270E0C8010E94A9F49C01009701F1F7
:2068A000982F901BF12C992339F09150F801E90FF11D8081F826F7CF4AE050E060E070E0B5
:2068C000C90101960E940EEACF2CD12CE12CF12C6C157D058E059F0531F087E597E068CE27
:2068E0008DE297E065CE8091AD039091AE03A091AF03B091B0038093740890937508A093B3
:206900007608B093770880912702811122C067E470E0C8010E9471F40097D9F04AE050E064
:2069200060E070E001960E940EEA6430710588F4E6EBF6E084917F019FEFE91AF90A882395
